{
  "_format": "hh-sol-artifact-1",
  "contractName": "payment",
  "sourceName": "contracts/payment.sol",
  "abi": [
    {
      "inputs": [],
      "stateMutability": "nonpayable",
      "type": "constructor"
    },
    {
      "inputs": [],
      "name": "buyItem",
      "outputs": [],
      "stateMutability": "payable",
      "type": "function"
    }
  ],
  "bytecode": "0x608060405234801561001057600080fd5b50336000806101000a81548173ffffffffffffffffffffffffffffffffffffffff021916908373ffffffffffffffffffffffffffffffffffffffff16021790555061026e806100606000396000f3fe60806040526004361061001e5760003560e01c8063795612d614610023575b600080fd5b61002b61002d565b005b60003411610070576040517f08c379a0000000000000000000000000000000000000000000000000000000008152600401610067906101ae565b60405180910390fd5b60003373ffffffffffffffffffffffffffffffffffffffff163190506000670de0b6b3a7640000826100a29190610207565b90503481116100e6576040517f08c379a00000000000000000000000000000000000000000000000000000000081526004016100dd906101ae565b60405180910390fd5b60008054906101000a900473ffffffffffffffffffffffffffffffffffffffff1673ffffffffffffffffffffffffffffffffffffffff166108fc349081150290604051600060405180830381858888f1935050505015801561014c573d6000803e3d6000fd5b505050565b600082825260208201905092915050565b7f506c6561736520706179206d6f7265207468616e203020657468657200000000600082015250565b6000610198601c83610151565b91506101a382610162565b602082019050919050565b600060208201905081810360008301526101c78161018b565b9050919050565b6000819050919050565b7f4e487b7100000000000000000000000000000000000000000000000000000000600052601260045260246000fd5b6000610212826101ce565b915061021d836101ce565b92508261022d5761022c6101d8565b5b82820490509291505056fea26469706673582212209d46ec48d6d563f3379a73acacb152d20158b3d03715fea26ef5128d25c3ce3664736f6c63430008110033",
  "linkReferences": {},
  "deployedLinkReferences": {}
}